S0100000426C696E6B6C65642E73726563EF
S11300000C942A000C9434000C9434000C943400A6
S11300100C9434000C9434000C9434000C9434008C
S11300200C9434000C9434000C9434000C9434007C
S11300300C9434000C9434000C9434000C9434006C
S11300400C9434000C9434000C9434000C9434005C
S11300500C94340011241FBECFE5D4E0DEBFCDBF25
S11300600E9436000C944D000C9400008FEF87BB67
S113007088BB2FEF33ED90E3215030409040E1F7FF
S113008000C0000018BA2FEF33ED90E32150304048
S11100909040E1F700C00000EBCFF894FFCFE2
S9030000FC
